:1000000002065DAD07C2AFC2B112064FE4FCECC3FD
:100010009408748094805014ED30E004D2B18002D2
:10002000C2B1EDC313FD12064F0C80E2D2B1D2AFC4
:0600300012064F02064F0C
:10003B0002056DE549243DF8E6054922783A30077B
:10004B0002783DE475F00112053702039A2000EBAC
:10005B007F2ED2008018EF540F2490D43440D4FF5D
:10006B0030040BEF24BFB41A0050032461FFE54AA0
:10007B006002154A054DE54D7002054C30070D78B1
:10008B003AE475F001120537EF0203E002066974DA
:10009B0003D2078003E4C207F5498B3A8A3B893CBC
:1000AB00E4F54AF54CF54DE54A60077F20120079DF
:1000BB0080F5754BFFC201C200C202C203C205C26A
:1000CB0006C208120047FF700D3007057F001200B3
:1000DB008AAF4DAE4C22B4255FC2D5C20412004785
:1000EB00FF24D0B40A00501A75F00A784A30D505AF
:1000FB0008B6FF0106C6A426F620D5047002D2036B
:10010B0080D924CFB41A00EF5004C2E5D204020206
:10011B008AD20180C6D20080C0D20280BCD2D580E8
:10012B00BAD20580B47F201200792002077401B582
:10013B004A0040F112003EFF1200790200B2D208D1
:10014B00D206809512003EFB12003EFA12003EF9D9
:10015B004A4B7006795B7A037BFF20022EE54A60DF
:10016B002A7E008E827583001203B360060EEE6545
:10017B004B70F0C2D5EBC0E0EAC0E0E9C0E0EE1294
:10018B0002D1D0E0F9D0E0FAD0E0FB12039AFF6085
:10019B00AAEBC0E0EAC0E0E9C0E0120079D0E024AD
:1001AB0001F9D0E03400FAD0E0FBE54B0460DCD57C
:1001BB004BD980877BFF7A0279CDD202809C791054
:1001CB0080027908C206C2088008D2D5790A800459
:1001DB00790AC2D5E54B047002F54BE4FAFDFEFF3C
:1001EB0012003EFC7B0820011312003EFD7B1030F9
:1001FB00000A12003EFE12003EFF7B20EC3382D53C
:10020B0092D55013C3E43000069FFFE49EFEE4201A
:10021B0001039DFDE49CFCE4CBF8C201EC700CCF18
:10022B00CECDCCE824F8F870F38017C3EF33FFEE94
:10023B0033FEED33FDEC33FCEB33FB994002FB0F4C
:10024B00D8E9EB300105F8D0E0C448B201C0E00AB0
:10025B00EC4D4E4F78207B0070C2EAB54B0040BC92
:10026B00C0E01202D3D0F0D0E0200104C4C0E0C43F
:10027B00B201C0F0120062D0F0D5F0EB0200B21266
:10028B000547014F5301C95801204C011C4201CDB8
:10029B004F01D54401D54901354301DB5501BF461B
:1002AB0001BF4501BF47037B5001242D01282E01BF
:1002BB004B2B012C2301492003642A00E448000046
:1002CB0001433F3F3F00790AA2D5200314300509B3
:1002DB00B910020404B9080104A2D520060250018A
:1002EB00042002689202B54A005034C0E07F2030EF
:1002FB0003197F30A20272067205500F12032AC235
:10030B0002C206C205C2087F30800F300503E9C068
:10031B00E0120079300503D0E0F9D0E0B54ACC30DB
:10032B0005177F30B9100C1200797F583004077F06
:10033B00788003B908031200793002057F2D020083
:10034B00797F202008F87F2B2006F322920280CFA2
:10035B00286E756C6C2900D20112003E3001F8C278
:10036B0001784A30D50108F60200E42D5043495874
:10037B0012003E2403B405004001E490037693126F
:10038B00006A743A12006AD203754A040201C9BBAF
:10039B00010689828A83E0225002E722BBFE02E338
:1003AB002289828A83E49322BB010CE58229F582A0
:1003BB00E5833AF583E0225006E92582F8E622BB75
:1003CB00FE06E92582F8E222E58229F582E5833AE9
:1003DB00F583E49322BB010689828A83F0225002C3
:1003EB00F722BBFE01F322EF8DF0A4A8F0CF8CF027
:1003FB00A428CE8DF0A42EFE22BB0110E58229F598
:10040B0082E5833AF583E0F5F0A3E0225009E92574
:10041B0082F886F008E622BBFE0AE92582F8E2F5AF
:10042B00F008E222E5832AF583E993F5F0A3E9933B
:10043B002275F008758200EF2FFFEE33FECD33CD22
:10044B00CC33CCC58233C5829BED9AEC99E582986F
:10045B00400CF582EE9BFEED9AFDEC99FC0FD5F06E
:10046B00D6E4CEFBE4CDFAE4CCF9A88222B800C1E5
:10047B00B90059BA002DEC8BF084CFCECDFCE5F052
:10048B00CBF97818EF2FFFEE33FEED33FDEC33FC99
:10049B00EB33FB10D703994004EB99FB0FD8E5E442
:1004AB00F9FA227818EF2FFFEE33FEED33FDEC3324
:1004BB00FCC933C910D7059BE99A4007EC9BFCE9B3
:1004CB009AF90FD8E0E4C9FAE4CCFB2275F010EFEF
:1004DB002FFFEE33FEED33FDCC33CCC833C810D732
:1004EB00079BEC9AE899400AED9BFDEC9AFCE89986
:1004FB00F80FD5F0DAE4CDFBE4CCFAE4C8F922EC42
:10050B008EF0A4CCC5F0CCCDF8EFA4CEC5F02DFD6C
:10051B00E43CFCE8A42EC8C5F03DFDE43CFCEFA494
:10052B00FFE5F028FEE43DFDE43CFC22FAE6FB0887
:10053B0008E6F925F0F618E6CA3AF622D083D082FF
:10054B00F8E4937012740193700DA3A393F87401E4
:10055B0093F5828883E4737402936860EFA3A3A37B
:10056B0080DFC0E0C0D030D822C2D830A50AE51257
:10057B002518F518E5118008E50C2518F518E50B7D
:10058B003517F5178518EAE517F5FA30D922C2D9D0
:10059B0030A60AE514251AF51AE5138008E50E2591
:1005AB001AF51AE50D3519F519851AEBE519F5FB51
:1005BB0030DA22C2DA30A70AE516251CF51CE51540
:1005CB008008E510251CF51CE50F351BF51B851C5C
:1005DB00ECE51BF5FCD0D0D0E0328B228A238924AA
:1005EB007534007535007536258534378535388576
:1005FB00363912060A75340075350075360022EB54
:10060B00C537FBEAC538FAE9C539F97F0C783D12D5
:10061B00039AF60809E970010ADFF4AB37AA38A987
:10062B00390200A07BFF7A0679711205E57FC812AB
:10063B00063F80F07DCE7C04ED1D70011C144C70C8
:10064B00F7DFF1227F7F7E00EF1F70011E144E70CB
:10065B00F722787FE4F6D8FD75815402062FAB079D
:10066B00120003AF032248656C6C6F2C205354436C
:09067B00313546313034570A00D4
:00000001FF
