:1009DD0048656C6C6F20546F646179210030313241
:0809ED00333435363738390088
:0709C3001209897F287E0064
:1009CA00E4FDFCC3ED9FEC9E5008000DBD00010C38
:0209DA0080F1AA
:0109DC0022F8
:10096900E4FDFCC3ED9FEC9E5015E4FBFA0BBB00C4
:0F097900010ABA04F8BB74F50DBD00010C80E44F
:01098800224C
:0A09F500C2B353A00FEB54F042A070
:0C09FF00D2B47F017E001209CAC2B422EB
:10098900AB077F107E001209CAC2B21209F5EBC487
:0D09990054F0FB53A00F54F042A00209FFE0
:1009A600AB077F107E001209CAD2B21209F5EBC45A
:0D09B60054F0FB53A00F54F042A00209FFC3
:100A0B00ED7006EF2480FA8004EF24C0FAAF0202E7
:020A1B00098947
:100921008B0A8A0B890C120A0BAB0AAA0BA90C12AF
:100931000888FF60101209A67401250CF50CE43536
:060941000BF50B80E4221F
:040800008A0A8B0BCA
:10080400120A0BAE0AAF0B7C277D101208A1AB07AE
:10081400AE0AAF0B7C037DE81208A17C007D0A12AE
:1008240008A18D0CAE0AAF0B7C007D641208A17C7C
:10083400007D0A1208A18D0DAE0AAF0B7C007D0A63
:100844001208A17C007D0A1208A18D0EAE0AAF0B1E
:100854007C007D0A1208A1AA05AF03EF9009EA9370
:10086400FF1209A6E50C93FF1209A6E50D93FF12EA
:1008740009A6E50E93FF1209A67F2E1209A6EA9394
:04088400FF0209A6C0
:100947007F281209C31209C31209FF1209C6120927
:10095700897F0C1209897F011209897F027E0002B3
:0209670009691C
:1008F6001209477BFF7A0979DDE4FDFF120921AB76
:1009060009AA087D01E4FF1208007F327E00120961
:0B091600690509E50970E8050880E4A8
:03000000020A1DD4
:0C0A1D00787FE4F6D8FD75810E0208F623
:10088800BB010689828A83E0225002E722BBFE026E
:09089800E32289828A83E49322A1
:1008A100BC000BBE0029EF8DF084FFADF022E4CC3B
:1008B100F875F008EF2FFFEE33FEEC33FCEE9DEC04
:1008C100984005FCEE9DFE0FD5F0E9E4CEFD22ED4A
:1008D100F8F5F0EE8420D21CFEADF075F008EF2F94
:1008E100FFED33FD4007985006D5F0F222C398FD85
:0508F1000FD5F0EA2222
:00000001FF
