:1008FC004142434445464748494A4B4C4D4E4F5064
:10090C00005152535455565758595A30313233348A
:10091C00350074657874007A6A3937637A6200003E
:10092C00000007010204070010081F0000041E014C
:10093C000101010102040008080808080907000069
:10094C00000007040404070010101E1212123E04CB
:10095C000407000000000012121E1010110F0000FE
:10096C0007050507000007000E0A0A0E00121F01FA
:0F097C0002040705050700080700070505070027
:10098B007F017E001209ABD2B3EBA2E79287A2E6FE
:10099B009286A2E59285A2E49284C2B37F017E0087
:1009AB00EF1FAA0670011E4A6013E4FCFDC3ED9411
:0D09BB007BEC940050EA0DBD00010C80F0B3
:0109C800220C
:1009F500AB07C2B212098BD2B3EBA2E39287A2E294
:0D0A05009286A2E19285A2E09284C2B32203
:100A1200AB07D2B212098BD2B3EBA2E39287A2E266
:0D0A22009286A2E19285A2E09284C2B322E6
:100A7800ED7006EF2480F98004EF24C0F9AF01027D
:020A880009F56E
:0B0A630075F00A84E5F02430FBE4FD90
:0A0A6E008B0A120A78AF0A020A127E
:0609C9007BFF7D01E4FF4D
:1009CF008B0A8A0B890C120A78AB0AAA0BA90C1294
:1009DF000A4AFF6010120A127401250CF50CE43557
:0609EF000BF50B80E42271
:100A2F007F021209F57F281209F57F0C1209F57F55
:0B0A3F00011209F57F027E000209ABE6
:10080000120A2F7F027E001209AB7BFF7A0879FC67
:10081000E4FDFF1209CF7A09790D1209C97FE87E3C
:10082000031209AB7F011209F57F027E001209ABAA
:100830007BFF7A09791EE4FDFF1209CF7A0979233B
:100840001209C97F601209F5E4F509C3E5099408A6
:10085000748094805032E4F9E9C3940874809480E1
:100860005022E50975F008A4242BF582E43409F53B
:1008700083E58229F582E43583F583E493FF120A48
:10088000120980D4050980C37B04E4FD7F0C120AA1
:100890006E7B05E4FD7F0D120A6E7B067D017F0CE9
:1008A000120A6E7B077D017F0D120A6EE4FBFD7F4D
:1008B0000E120A6E7B01E4FD7F0F120A6E7B027D31
:1008C000017F0E120A6E7B037D017F0F120A6EE517
:1008D0000875F064842430FBE4FD7F05120A6EE5A0
:1008E0000875F00A847F06120A63E5087F07120A7A
:0C08F000637F647E001209AB050880D312
:03000000020A8A67
:0C0A8A00787FE4F6D8FD75810C020800AE
:100A4A00BB010689828A83E0225002E722BBFE02AA
:090A5A00E32289828A83E49322DD
:00000001FF
